{
  "_format": "hh-sol-artifact-1",
  "contractName": "RandomNumberGenerate",
  "sourceName": "contracts/Random.sol",
  "abi": [
    {
      "inputs": [],
      "stateMutability": "nonpayable",
      "type": "constructor"
    },
    {
      "inputs": [],
      "name": "randomResult",
      "outputs": [
        {
          "internalType": "uint256",
          "name": "",
          "type": "uint256"
        }
      ],
      "stateMutability": "view",
      "type": "function"
    },
    {
      "inputs": [
        {
          "internalType": "bytes32",
          "name": "requestId",
          "type": "bytes32"
        },
        {
          "internalType": "uint256",
          "name": "randomness",
          "type": "uint256"
        }
      ],
      "name": "rawFulfillRandomness",
      "outputs": [],
      "stateMutability": "nonpayable",
      "type": "function"
    }
  ],
  "bytecode": "0x60c060405234801561001057600080fd5b5073b3dccb4cf7a26f6cf6b120cf5a73875b7bbc655b7301be23585060835e02b77ef475b0cc51aa1e07098173ffffffffffffffffffffffffffffffffffffffff1660a08173ffffffffffffffffffffffffffffffffffffffff1660601b815250508073ffffffffffffffffffffffffffffffffffffffff1660808173ffffffffffffffffffffffffffffffffffffffff1660601b8152505050507f2ed0feb3e7fd2022120aa84fab1945545a9f2ffc9076fd6156fa96eaff4c131160001b60018190555067016345785d8a000060028190555060805160601c60a05160601c6101a76101076000398060995250506101a76000f3fe608060405234801561001057600080fd5b50600436106100365760003560e01c806342619f661461003b57806394985ddd14610059575b600080fd5b610043610091565b6040518082815260200191505060405180910390f35b61008f6004803603604081101561006f57600080fd5b810190808035906020019092919080359060200190929190505050610097565b005b60035481565b7f000000000000000000000000000000000000000000000000000000000000000073ffffffffffffffffffffffffffffffffffffffff163373ffffffffffffffffffffffffffffffffffffffff1614610158576040517f08c379a000000000000000000000000000000000000000000000000000000000815260040180806020018281038252601f8152602001807f4f6e6c7920565246436f6f7264696e61746f722063616e2066756c66696c6c0081525060200191505060405180910390fd5b6101628282610166565b5050565b80600381905550505056fea26469706673582212206b6aafd619e33cd9ef4be575d7cd3c7ec3ab02cdfa2d79faa1718274deba6f8964736f6c63430006060033",
  "linkReferences": {},
  "deployedLinkReferences": {}
}